10001FLORENCIA      BLANCO         220004400000
10002WALTER         CARSON         150003000000
10003AMPARO         ANCHORENA      300006000000
10004EMILIO         EIFFEL         180003600000
10005LARA           MIGUEL         280001600000
10006OSCAR          CASCO          280005900000
10007ALVARO         JUANCE         280007600000
10008FELICIA        MCINTOSH       280005000000
10009LUCIO          MERCADO        280007676000
10010BRENDA         MCCARTNEY      280001660000
