2023-01-0110100MCCARTNEY, BRANDA                       ALMACEN             0000000100
2023-01-0110050EIFFEL, EMILIO                          ALMACEN             0000000100
2023-01-0110050EIFFEL, EMILIO                          ALMACEN             0000000100
2023-01-0110045ANCHORENA, AMPARO                       ALMACEN             0000000100
2023-01-0110050EIFFEL, EMILIO                          ALMACEN             0000000100
2023-01-0110001BLANCO, FLORENCIA                       ALMACEN             0000000100
2023-01-0110045ANCHORENA, AMPARO                       ALMACEN             0000000100
2023-01-0110050EIFFEL, EMILIO                          ALMACEN             0000000100
2023-01-0110100MCCARTNEY, BRANDA                       ALMACEN             0000000100
2023-01-0110001BLANCO, FLORENCIA                       ALMACEN             0000000100